:020000041000EA
:101000004013002009290010ED4B0010F5280010B6
:10101000F5280010F5280010F52800100000000049
:10102000000000000000000000000000F529001092
:10103000F52800100000000091290010692F001011
:10104000792B0010792B0010792B0010792B0010D0
:10105000792B0010792B0010792B0010792B0010C0
:10106000792B0010792B0010792B0010792B0010B0
:10107000792B0010792B0010792B0010792B0010A0
:1012700080B582B002AF00F039F800F04BF800F012
:101280001BF80B4B01930023009301230122012142
:10129000012000F032FA074B019300230093012351
:1012A00001220121012000F031F900BFBD4680BDBF
:1012B000005005400010054080B500AF002000F050
:1012C00067F800F075FB012000F0A5FB00BF80BDB2
:1012D00080B400AF034B044A1A6000BFBD4680BC17
:1012E000704700BF700200200068890980B483B095
:1012F00000AF074B7B607B681B889BB223F0010328
:101300009AB27B681A8000BF0C37BD4680BC70471C
:101310000050004080B483B000AF054B7B607B6819
:1013200000221A8000BF0C37BD4680BC704700BF4A
:101330000060004080B485B000AF78600023FB609F
:1013400011E000BF00BF00BF00BF00BF00BF00BF73
:1013500000BF00BF00BF00BF00BF00BF00BF00BF95
:10136000FB680133FB60FA687B689A42E9DB00BFE7
:1013700000BF1437BD4680BC704700BF80B400AFCB
:10138000024B1846BD4680BC704700BF00010020DC
:1013900080B487B000AF78604FF040235B6A4FF0B5
:1013A000402223F003035362464B1B6823F0404363
:1013B0003B61444A3B691360424A3B6943F08043C6
:1013C0001360404A3B6943F0004313603D4A3B6968
:1013D00043F0404313603B4A3B6943F400231360EE
:1013E0007B68002B37D1384B1B68384A934202D1B7
:1013F0000223FB7511E0364B1B68344A934202D13D
:101400000123FB7509E0334B1B68304A934202D13C
:101410000023FB7501E00223FB75FA7D13465B0098
:1014200013445B0103F1026303F20473FB60FA7D72
:1014300013465B0013445B0103F1026303F5E063B1
:10144000BB60FB681B68244A934223D1BB68234AD4
:101450001B6813601EE07B68012B0CD1204B1B68BE
:101460003B613B6903F07F43B3F1124F12D11B4A3A
:101470003B6913600EE07B68022B0BD1194B1B6894
:101480003B613B6903F07F43B3F1124F02D1134A32
:101490003B6913604FF040235B6A4FF0402243F0FA
:1014A0000103536200BF4FF040235B6A03F40073F3
:1014B000B3F5007FF7D100BF00BF1C37BD4680BC2D
:1014C000704700BF5C400040F8072008AA55AA55A5
:1014D000F4072008F0072008208365776840004063
:1014E000EC002008E400200880B400AF064B1B6825
:1014F0004FF6FF72934201D1012300E0002318460A
:10150000BD4680BC704700BFE400200890B484B0A2
:1015100000AF0446084611461A462346FB710346AF
:10152000BB710B467B7113463B71FB69FB60FB791A
:10153000002B06D1FB685B6A23F07F42FB685A628E
:101540001EE0FB79012B0CD1FB685B6A23F07F4224
:10155000FB685A62FB685B6A43F02A42FB685A6286
:101560000EE0FB79022B0BD1FB685B6A23F07F4214
:10157000FB685A62FB685B6A43F07F42FB685A6211
:10158000BB79002B06D1FB681B6A23F44032FB6851
:101590001A621EE0BB79012B0CD1FB681B6A23F495
:1015A0004032FB681A62FB681B6A43F40032FB6836
:1015B0001A620EE0BB79022B0BD1FB681B6A23F485
:1015C0004032FB681A62FB681B6A43F44032FB68D6
:1015D0001A627B79002B06D1FB685B6A23F47F4299
:1015E000FB685A621EE07B79012B0CD1FB685B6AB9
:1015F00023F47F42FB685A62FB685B6A43F428521B
:10160000FB685A620EE07B79022B0BD1FB685B6AA8
:1016100023F47F42FB685A62FB685B6A43F47C52A6
:10162000FB685A623B79002B06D1FB685B6A23F4A6
:101630007F02FB685A621EE03B79012B0CD1FB68EC
:101640005B6A23F47F02FB685A62FB685B6A43F4BF
:101650002812FB685A620EE03B79022B0BD1FB6823
:101660005B6A23F47F02FB685A62FB685B6A43F49F
:101670007C12FB685A623B7E002B06D1FB685B6ADA
:1016800023F0FF02FB685A621EE03B7E012B0CD167
:10169000FB685B6A23F0FF02FB685A62FB685B6AC7
:1016A00043F02A02FB685A620EE03B7E022B0BD10C
:1016B000FB685B6A23F0FF02FB685A62FB685B6AA7
:1016C00043F03F02FB685A62FB681B6843F0054227
:1016D000FB681A6000BFFB681B6803F00043B3F1AE
:1016E000004FF8D0FB681B6843F00102FB681A60EA
:1016F00000BF1037BD4690BC704790B484B000AFB7
:101700000446084611461A462346FB710346BB7140
:101710000B467B7113463B71FB69FB60FB79002B29
:1017200006D1FB685B6A23F07F42FB685A621EE0C9
:10173000FB79012B0CD1FB685B6A23F07F42FB68CD
:101740005A62FB685B6A43F02A42FB685A620EE009
:10175000FB79022B0BD1FB685B6A23F07F42FB68AD
:101760005A62FB685B6A43F07F42FB685A62BB794E
:10177000002B06D1FB681B6A23F44032FB681A6217
:101780001EE0BB79012B0CD1FB681B6A23F44032AD
:10179000FB681A62FB681B6A43F40032FB681A623A
:1017A0000EE0BB79022B0BD1FB681B6A23F440329D
:1017B000FB681A62FB681B6A43F44032FB681A62DA
:1017C0007B79002B06D1FB685B6A23F47F42FB68C0
:1017D0005A621EE07B79012B0CD1FB685B6A23F413
:1017E0007F42FB685A62FB685B6A43F42852FB68DD
:1017F0005A620EE07B79022B0BD1FB685B6A23F403
:101800007F42FB685A62FB685B6A43F47C52FB6868
:101810005A623B79002B06D1FB685B6A23F47F0296
:10182000FB685A621EE03B79012B0CD1FB685B6AB6
:1018300023F47F02FB685A62FB685B6A43F4281258
:10184000FB685A620EE03B79022B0BD1FB685B6AA6
:1018500023F47F02FB685A62FB685B6A43F47C12E4
:10186000FB685A623B7E002B06D1FB685B6A23F063
:10187000FF02FB685A621EE03B7E012B0CD1FB6825
:101880005B6A23F0FF02FB685A62FB685B6A43F005
:101890002A02FB685A620EE03B7E022B0BD1FB68EA
:1018A0005B6A23F0FF02FB685A62FB685B6A43F0E5
:1018B0003F02FB685A62FB681B6843F00542FB6805
:1018C0001A6000BFFB681B6803F00043B3F1004FD0
:1018D000F8D0FB681B6843F00102FB681A6000BF88
:1018E0001037BD4690BC704780B487B000AFF86039
:1018F000B9607A607B687B617B691B6803F00103D8
:10190000002B1ED0FB6803F00F02BB6813440F339B
:1019100023F00F03BB60FB6823F00F03FB607B69C0
:10192000FA68C3F88021BB6843F001027B69C3F801
:10193000842100BF7B69D3F8843103F00103002BBD
:10194000F8D100BF1C37BD4680BC704780B487B05B
:1019500000AFF860B9607A607B687B617B691B6867
:1019600003F00103002B1ED0FB6803F00F02BB68DD
:1019700013440F3323F00F03BB60FB6823F00F0306
:10198000FB607B69FA68C3F88021BB6843F0010201
:101990007B69C3F8842100BF7B69D3F8843103F0ED
:1019A0000103002BF8D100BF1C37BD4680BC704737
:1019B00080B483B000AF4FF040231B6A4FF0402249
:1019C00043F00803136200BF4FF040231B6A03F487
:1019D0000063002BF8D04FF040235B6A23F0030331
:1019E0007B607B6843F001037B604FF040235A6AC1
:1019F0004FF040217B6813434B6200BF4FF0402300
:101A00005B6A03F40073002BF8D000BF00BF0C37F3
:101A1000BD4680BC704780B485B000AF78604FF0A1
:101A20004023DB694FF0402243F00103D3614FF0C4
:101A30004023DB6823F00F03FB60FA687B681343E5
:101A4000FB604FF04023DA684FF04021FB681343FE
:101A5000CB604FF040239B694FF0402243F00103DD
:101A6000936100BF1437BD4680BC704780B483B01B
:101A700000AF78607B689B78DBB243F04003DAB25A
:101A80007B689A7000BF0C37BD4680BC704780B43D
:101A900083B000AF78607B689B78DBB223F04003B3
:101AA000DAB27B689A7000BF0C37BD4680BC7047C5
:101AB00080B483B000AF78607B689B78DBB263F062
:101AC0007F03DAB27B689A7000BF0C37BD4680BCDA
:101AD000704780B483B000AF78607B689B78DBB2DE
:101AE00003F07F03DAB27B689A7000BF0C37BD4603
:101AF00080BC704780B483B000AF78607B685B7E49
:101B0000DBB243F05003DAB27B685A767B68DB794C
:101B1000DBB243F06003DAB27B68DA7100BF0C37E6
:101B2000BD4680BC704780B483B000AF78607B68EE
:101B30005B7EDBB223F05003DAB27B685A767B68B7
:101B4000DB79DBB223F06003DAB27B68DA7100BFC5
:101B50000C37BD4680BC704780B483B000AF78605E
:101B60007B685B7EDBB243F05003DAB27B685A7667
:101B70007B689B79DBB243F06003DAB27B689A71D1
:101B800000BF0C37BD4680BC704780B483B000AF47
:101B900078607B685B7EDBB223F05003DAB27B684F
:101BA0005A767B689B79DBB223F06003DAB27B68FC
:101BB0009A7100BF0C37BD4680BC704780B483B0BB
:101BC00000AF78607B689B79DBB243F01003DAB238
:101BD0007B689A7100BF0C37BD4680BC704780B4EB
:101BE00083B000AF78607B68DB79DBB243F0100331
:101BF000DAB27B68DA7100BF0C37BD4680BC704733
:101C000080B483B000AF78607B689B79DBB223F04F
:101C10001003DAB27B689A7100BF0C37BD4680BCF6
:101C2000704780B483B000AF78607B68DB79DBB24B
:101C300023F01003DAB27B68DA7100BF0C37BD46BF
:101C400080BC704780B485B000AF78600023FB6033
:101C50007B68DB8A7B817A8946F210631340002B14
:101C600048D07B689B79DBB203F04003002B08D09F
:101C70007B8903F48063002B03D0FB6843F480630B
:101C8000FB607B689B79DBB203F02003002B08D05C
:101C90007B8903F40073002B03D0FB6843F40073CB
:101CA000FB607B68DB79DBB203F04003002B08D0DC
:101CB0007B8903F48043002B03D0FB6843F480430B
:101CC000FB607B68DB79DBB203F02003002B08D0DC
:101CD0007B8903F40053002B03D0FB6843F40053CB
:101CE000FB607B8903F01003002B03D0FB6843F0FB
:101CF0001003FB60B7F90A2046F2106313401BB2D1
:101D000043F040031BB29AB27B68DA82FB68184644
:101D10001437BD4680BC704780B483B000AF786094
:101D20007B689B7BDBB223F00803DAB27B689A7393
:101D300000BF0C37BD4680BC704780B483B000AF95
:101D400078607B689B7BDBB243F00803DAB27B6888
:101D50009A7300BF0C37BD4680BC704780B485B015
:101D600000AF78600B46FB700AE0FB78082B04D8C4
:101D70007B689B7CDBB2FB8102E07B685B8AFB813A
:101D80007B68DB8A9BB203F00103002BEDD000BF20
:101D900000BF1437BD4680BC704780B483B000AF2D
:101DA000786000BF7B68DB8A9BB203F00403002BE2
:101DB000F8D000BF00BF0C37BD4680BC704780B470
:101DC00087B000AFF860B9607A607B689A00BB6842
:101DD0001B68B2FBF3F39BB29B09FB827B68DA00C2
:101DE000BB681B68B2FBF3F39BB20133DA0F1344F9
:101DF0005B10DBB203F03F037B75FB8A1B0A9BB2CF
:101E00003B75FB8AFB74FB6800229A70FB6800221A
:101E10009A73FB68C0229A73FB687A7D9A72FB689A
:101E20003A7D5A70FB68FA7C1A70FB680022DA70FF
:101E3000FB68DB78DAB2BB681B791343DAB2FB6864
:101E4000DA70BB681B79102B0BD1BB685B79022B56
:101E500007D1FB68DB79DBB243F04003DAB2FB6801
:101E6000DA71BB689B79022B05D1FB68DB78DAB2AB
:101E7000FB68DA7010E0FB68DB78DBB243F002034A
:101E8000DAB2FB68DA70FB68DB78DAB2BB689B79A0
:101E90001343DAB2FB68DA70FB689B7BDBB243F07A
:101EA0000403DAB2FB689A73FB6800229A71FB683C
:101EB0000022DA74FB68DB7CDBB243F00403DAB2A5
:101EC000FB68DA74FB68DB7CDBB243F00303DAB255
:101ED000FB68DA74FB68DB7CDAB2FB68DA74FB68F7
:101EE0005B7DDAB2FB685A75FB689B78DBB243F026
:101EF0000C03DAB2FB689A70BB68DB79032B0FD155
:101F0000FB68DB78DBB243F00403DAB2FB68DA701B
:101F1000FB689B78DBB243F01003DAB2FB689A707F
:101F200000BF1C37BD4680BC704780B487B000AF8F
:101F3000F860B9607A60FB689B78DBB223F00C0331
:101F4000DAB2FB689A707B689A00BB681B68B2FBC8
:101F5000F3F39BB29B09FB827B68DA00BB681B68CA
:101F6000B2FBF3F39BB20133DA0F13445B10DBB225
:101F700003F03F037B75FB8A1B0A9BB23B75FB8A10
:101F8000FB74FB687A7D9A72FB683A7D5A70FB6835
:101F9000FA7C1A70BB689B79022B05D1FB68DB7851
:101FA000DAB2FB68DA7010E0FB68DB78DBB243F092
:101FB0000203DAB2FB68DA70FB68DB78DAB2BB687E
:101FC0009B791343DAB2FB68DA70FB689B78DBB26B
:101FD00043F00C03DAB2FB689A7000BF1C37BD46B1
:101FE00080BC704780B485B000AF786039604FF036
:101FF000FF33FB607B685B7CDBB203F00103002BEB
:1020000006D17B689B79DAB23B681A700023FB60CB
:10201000FB6818461437BD4680BC704780B483B057
:1020200000AF78600B46FB7000BF7B685B7CDBB267
:1020300003F00803002BF8D17B68FA789A717B686B
:102040005B7CDBB203F00403002BF8D07B685B7C85
:10205000DBB203F04003002B00D1F0E700BF00BF6C
:102060000C37BD4680BC704780B485B000AF786047
:102070000B46FB704FF0FF33FB607B685B7CDBB291
:1020800003F00803002B03D04FF0FF33FB6004E0A4
:102090007B68FA789A710023FB60FB681846143756
:1020A000BD4680BC704780B487B000AFF860B960AF
:1020B0007A6000237B6109E07B69BA681344FA689F
:1020C0009279D2B21A707B6901337B61FB685B7CC9
:1020D000DBB203F00103002B03D17A697B689A42DB
:1020E000EADB7B6918461C37BD4680BC704780B46C
:1020F00083B000AF78607B68DB7CDBB263F07F038A
:10210000DAB27B68DA7400BF0C37BD4680BC70471A
:1021100080B483B000AF78607B68DB7CDBB203F017
:102120007F03DAB27B68DA7400BF0C37BD4680BC2F
:10213000704780B483B000AF78607B68DB7CDBB233
:1021400043F02003DAB27B68DA7400BF0C37BD4677
:1021500080BC704780B483B000AF78607B68DB7C64
:10216000DBB223F02003DAB27B68DA7400BF0C37ED
:10217000BD4680BC704780B485B000AF78604FF03A
:10218000FF33FB607B685B7CDBB203F00803002B52
:1021900001D10023FB60FB6818461437BD4680BCA4
:1021A000704780B485B000AF78604FF0FF33FB60BC
:1021B0007B685B7CDBB203F02003002B06D17B68DD
:1021C0005B7CDBB203F00103002B01D10023FB6039
:1021D000FB6818461437BD4680BC704780B485B094
:1021E00000AF78604FF0FF33FB607B685B7CDBB255
:1021F00003F00403002B08D07B685B7CDBB203F0A8
:102200004003002B01D00023FB60FB681846143705
:10221000BD4680BC704780B485B000AF78604FF099
:10222000FF33FB607B685B7CDBB203F00403002BB5
:102230000FD07B685B7CDBB203F04003002B08D03F
:102240007B685B7CDBB203F00103002B01D0002331
:10225000FB60FB6818461437BD4680BC704780B4ED
:1022600083B000AF78607B68DB7CDBB243F018039F
:10227000DAB27B68DA7400BF0C37BD4680BC7047A9
:1022800080B483B000AF78607B68DB7CDBB223F086
:102290001803DAB27B68DA7400BF0C37BD4680BC25
:1022A000704780B485B000AF78600023FB607B6826
:1022B0005B7DDBB203F00803002B14BF0123002376
:1022C000DBB21A467B685B7DDBB203F00103002BB7
:1022D00001D0022300E0002313437A68527DD2B27A
:1022E00002F00402002A01D0202200E00022134361
:1022F0007A68527DD2B202F00202002A01D0042292
:1023000000E000221343FB607B685B7DDAB27B68F0
:102310005A75FB6818461437BD4680BC70470346A3
:1023200013F8012B002AFBD1181A0138704700005E
:102330002DE9F3411C4DAC68636C13BB636B3BBB75
:10234000DFF86480194C1A4EAB689B69EBB101222F
:102350000DF1070140469847012816D19DF8072046
:102360000A2A01D00D2A18D12368002B15DD002779
:10237000F7540F490F480022002301F031FA27607B
:10238000E2E7284698470028D8D102B0BDE8F0819E
:10239000054898470028D3D1F7E723681E2B9EBF36
:1023A000591CF2542160CFE7B0590010C804002036
:1023B0002C05002040020020F8B50646FFF7AFFFCD
:1023C000064F05460024AC4200DBF8BD315DBB681A
:1023D00002485B6898470134F5E700BFB059001028
:1023E0002DE9F04794B0434C204603F04DF830B946
:1023F000414802F0E3FB002014B0BDE8F087A56877
:10240000002D53D0AB6C002B50D03C49002220460D
:102410009847AB6A002B4BD13948FFF7CDFF3948BD
:10242000FFF7CAFF0E2200210DF1360003F0FDF97F
:10243000354ACDF810D0106851686B4603C30023AD
:10244000CDE9023306230593022204AB06930992D9
:10245000012308AACDE90A2307934FF4106302AFC2
:10246000ADF8343003F5741308970C93274C2046CD
:1024700003F00AF8F8B92168254802F09FFB254CC3
:10248000254D264E4FF0FF324FF0FF330CA920466A
:1024900001F004FA0028AED12846FFF78DFF0CA802
:1024A000FFF78AFF3046FFF787FFEBE71C48A0E7FE
:1024B00020469847B0E71B48DFF86CA0DFF86C9027
:1024C00002F07CFB0325A36806AA1E680CA90AABD0
:1024D0002046B047504602F071FBB846002618F877
:1024E000011B4846013602F069FB082EF7D1013D79
:1024F000E9D1C4E7B0590010D85F001031230010B3
:10250000226000103E600010685E0010D859001074
:102510006360001040020020A76000103B600010C4
:10252000EF5F00107F6000108F6000109F60001050
:10253000014B1B68184700BF08010020014B1860C1
:10254000704700BF0801002030B585B004460D4635
:1025500010220021684603F068F902238DF802304A
:102560002A46044B01932146684602F05FF805B005
:1025700030BD00BF3125001080B505460E46174618
:10258000984601F005FD034603F0BAF9DFF818900C
:10259000044649F80030424630463946A84754F8C8
:1025A000090000F0C7F900BF0800000008B5084B9B
:1025B000084A23F4FF7323F001039360FEF758FEEB
:1025C000012003F0A5F9BDE8084003F0A5B900BF5C
:1025D0000010001000ED00E0014B03600020704788
:1025E000705E001030BFFFF7FDBF00BF2DE9F04166
:1025F0000B4EDFF8308006EB0807CC1B0546324651
:102600000949204603F003F9A01942460021083C7D
:1026100003F00BF96C6707F10800BDE8F08100BF1B
:102620000000000004000000605E0010074A93688C
:1026300093F90E10002907DB526993421FBF044A29
:10264000536843F080535360704700BFF404002088
:1026500000ED00E070B5264B15469A6A12F0100F97
:102660009A6A14BF1124102412F0080F9A6A18BF36
:102670001224920706460AD5586B9A6A140634D576
:1026800019B19A6A22F080029A62132401E06FF075
:102690001500174B9A6A12F0010F9A6A18BF14249A
:1026A00012F0200F9A6A18BF1524D20602D49B6A32
:1026B0009B070AD50E4B5B68190506D5314600F01D
:1026C00011FA10B180F309880224094B9A6A920624
:1026D00042BF5A6A22F400525A629A6A42F0FF02DA
:1026E0009A6200232B70204670BD6FF01500CCE776
:1026F00000ED00E0134B9A6A12F0007F9A6A14BF53
:102700001E201D2012F0807F9A6A18BF1F2012F42D
:10271000002F9A6A18BF212012F4802F9A6A18BFDE
:10272000222012F4003F9A6A18BF232012F4803F3F
:102730009A6A6FEA02426FEA12429A6218BF242034
:10274000704700BF00ED00E010B5194B0246986AD3
:102750009C6A10F4805F14BF1720162014F4006FD9
:102760009C6A18BF1820A40509D5986B986A0004C4
:1027700004D51AB19A6A22F400429A6219200C4BCD
:102780009A6A12F4806F9A6A18BF1A20D2050CD484
:102790009B6A13F4005F18BF1C20054A936A43F438
:1027A0007F43936200230B7010BD1B20F5E700BF31
:1027B00000ED00E0F0B5484B5B688BB00446C3F316
:1027C0000803002585F31188BFF36F8F02F07F4067
:1027D000B0F17F4F11D102F00C0008280DD0100786
:1027E0004CBF0C4601250022033B8DF80720032B2C
:1027F00005D8DFE803F0246367602C46F3E7002385
:102800009DF80720CAB902AE04F12007206861686C
:10281000324603C20834BC421646F7D1099A002D4D
:1028200054D0C2F3080121B96FEA52226FEA422262
:10283000099202A9184602F0CFF90BB0F0BD264B61
:10284000DA6A9107DBD4DA6A002AD8DBDA6A520046
:10285000D5D55A69A16942F480725A61BFF34F8F8E
:10286000BFF36F8F5A6931F8021C22F480725A61EB
:10287000BFF34F8FBFF36F8F4DF6027291420AD0B4
:102880009A6AD2B24AB10DF1070201212046FFF740
:10289000E1FE0346B4E72368B2E79A6A12F47F4F79
:1028A00005D00DF107010120FFF74EFFF1E79B6A0C
:1028B000B3F5803FA3D3FFF71DFFEAE70DF1070251
:1028C0000021E3E70DF107010020EDE722F4FF729C
:1028D00022F00102ACE700BF00ED00E0044B5A69B2
:1028E00042F010025A615A6922F008025A61704798
:1028F00000ED00E0EFF30880EFF3098101B57246C7
:10290000FFF758FF01BD00BF202080F31188084861
:102910004FF40461401880F30988EFF3148002211A
:10292000084380F31488BFF36F8F00F09BF800001A
:1029300080050020084B9B6883420BD1EFF3058391
:1029400043B1064B5A6842F080525A605A6A22F4E8
:1029500000425A6202F075BEF404002000ED00E06F
:10296000094A93686FF00A01D967084998674B686C
:1029700043F080534B60002383F31188BFF36F8FC4
:102980009368D86F704700BFF404002000ED00E0AA
:1029900015498A684FF030001044EFF3098C80E845
:1029A000F01F202080F31288BFF36F8F0F4F4FF07E
:1029B00000664A698A603E604FF07404141920680A
:1029C0000B4C2060906F0023936780F3118804B54F
:1029D000104600F0EFF8BDE8044002F1300090E846
:1029E000F01F8CF309887047F404002004ED00E028
:1029F000CC0400201EF0040F0CBFEFF30880EFF3AF
:102A00000980816911F8021C0229FFD001B57246C4
:102A100002F0E8F801BD00BF00B2002807DB044A5D
:102A20004109012300F01F00834042F82130704724
:102A300000E100E000B20028A8BF00F1604001F111
:102A40000101B8BF064B4FEA4111ACBF00F5614030
:102A500000F00F00C9B2B4BF195480F800137047DA
:102A600014ED00E00F4A08B50F4B22F07F029A6088
:102A7000BFF34F8FBFF36F8FD3F8882022F470021B
:102A8000C3F88820EFF3148323F0040383F314883E
:102A9000BFF36F8F00F0F4FD01F018FB00F060F859
:102AA00000F032FE0010001000ED00E042F8203C83
:102AB000009B42F81C3C0A49019B42F8183C029BCF
:102AC00042F8143C21F001014FF0807342F8043CBD
:102AD00042F8081C0023203A02658367704700BF54
:102AE00079250010094A0346906870B113F1160F5A
:102AF000406E05D0A0F140029A4205D8834203D22D
:102B0000814228BF0020704700207047F404002055
:102B100008B515460B4A0C4B9060426F1A600E4682
:102B200000F048F82C4686F309884FF00000074B68
:102B3000984720464FF000014FF000024FF000038D
:102B4000034C2047F4040020CC040020034C001068
:102B500079250010014B10221A61704700ED00E04A
:102B6000044800232021C21801338C2B82F8001363
:102B7000F9D1704700E100E008B5EFF30583064A9C
:102B8000103B02EBC30152F8330049688847BDE8A7
:102B90000840FFF74BBD00BF005A0010024B034A2C
:102BA0000348012100F076B80080032000000020D7
:102BB000705E0010426E054B403A1A60044A402194
:102BC000C3E901121846012100F06EB8D0040020BC
:102BD00000000B15084AC2F898000B6823F01F0389
:102BE000034343F01003C2F89C308B6843F00103A9
:102BF000C2F8A030704700BF00ED00E02DE9F043BF
:102C0000DFF8608085B00E461F4604464FF000098D
:102C1000B14523DA6068D8B13FB1411E08421BD1EB
:102C20001F2819D92368194216D12368019301F08E
:102C3000FCFFA36803430393D8F89050C5F307251E
:102C4000D0B2013DA84207D801A9FFF7C3FF421C3B
:102C500009F101090C34DBE76FF01502104605B0ED
:102C6000BDE8F08300ED00E0044B0522C3F894209A
:102C7000BFF34F8FBFF36F8F704700BF00ED00E0D1
:102C8000BFF35F8F024B0022C3F89420704700BF50
:102C900000ED00E010B5034C01232278FFF7AEFFF2
:102CA000207010BD4C05002008B50B4A0023127897
:102CB000FFF7A4FF10F1160F07D0084A0021D2F841
:102CC0009030C3F30723984200DB08BDC2F8980098
:102CD000C2F8A0100130F2E74C05002000ED00E042
:102CE0002DE9F043534B544CD3F890302568C3F38F
:102CF00007239D4285B000F29A80FFF7C1FF0020B4
:102D00000C2685421AD14D4C4D4F25706846FFF771
:102D100063FCDFF82081DFF82C9106460025AE42E7
:102D200013D1237843490020D1F89020C2F3072221
:102D3000934276DBFFF798FF002042E0616806FBD4
:102D40000011FFF747FF0130DBE7009800EB0511AA
:102D50004FEA051CCB683B40B3F5000F48D00AD8BA
:102D6000B3F5001F30D0B3F5800F36D0B3F5801F18
:102D700010D00135D3E7B3F1807F42D0B3F1007FAB
:102D8000F7D150F80C3088684A6801F04EFF40F4E3
:102D9000802009E050F80C3088684A6801F045FF4F
:102DA00040F0885040F43020CDE901230390D8F85A
:102DB00090302078C3F30723013B98422AD96FF063
:102DC000150005B0BDE8F08350F80C3088684A68FB
:102DD00001F02BFF40EA0900E6E750F80C30886864
:102DE0004A6801F022FF40F0E06040F40030DBE789
:102DF00050F80C3088684A6801F017FF40F0827084
:102E0000D2E750F80C3088684A6801F00EFF40F0B5
:102E10008870C9E701A9FFF7DDFE2378013323702D
:102E2000A7E7C1F89830C1F8A00001337CE74FF064
:102E3000FF30C6E700ED00E07C5E00104C0500208E
:102E40000000F0FF0000081108B5024B1B6898470E
:102E5000002008BDDC040020034B044A186093786E
:102E600043F0020393707047DC0400200C01002043
:102E700008B50649064821F00701C1F1005202F5E4
:102E8000603201F05CFE002008BD00BF0719002081
:102E9000E004002008B5074802F0F6FA38B1064809
:102EA000FFF7DAFF0448FFF749FB002008BD6FF089
:102EB0001200FBE7B0590010BD2E00100A2838B5EB
:102EC000074D044604D1AB680D215B68284698473E
:102ED000AB6803485B68E1B29847204638BD00BF45
:102EE000B059001010B54FF0E0230F499C691A69E2
:102EF00008689B690D4902F4803234B993B90346DE
:102F00004AB90A681044C01A10BD002B08BF034616
:102F10000AB9A342F5D90A6802440A604FF0E022D8
:102F20001269EEE70446F3E7F0040020EC04002009
:102F30000A4B202283F82320094B4FF47A521A605F
:102F4000084B002018604FF0E02343F67F625A617F
:102F500098611A6942F007021A61704700ED00E0BB
:102F6000F0040020EC040020684620F007018D46A4
:102F700019B5FFF7B7FF114B1149D3E900420868B3
:102F8000001942F10002C3E900020E4A00230B605F
:102F9000D2E900414FF47A53001BB0FBF3F04343F6
:102FA0001B1941F10001C2E9003101F06BF9FFF793
:102FB0003DFBBDE819408546704700BF80020020F8
:102FC000EC040020780200202DE9F041DFF8DC80DD
:102FD00099B1421C0BD14FF0E022136923F0010399
:102FE00013614FF07F43C8F80030BDE8F081D8F896
:102FF0000060012807DC00270BE0431CD8F80060C4
:10300000F7D140F21740B0F5836FA8BF4FF483604B
:10301000471EEFF31185202383F31288BFF36F8FD0
:10302000FFF760FF224C4FF0E0239969D4E90023B9
:10303000801843F10003C4E900031E4B00221A600C
:103040001D4B1A68831A2ED44FF47A5C0CFB07339D
:1030500003F579533F33B3FBFCF7131A0CFB07332B
:10306000B3F5806F154A38BF4FF48063934228BF91
:1030700013464FF0E022C8F80030013B90695361DD
:10308000002393618142A1EB0003D4E9001238BF11
:103090009B195B1842F10002C4E9003285F31188E4
:1030A000BFF36F8FA1E74FF48063E2E7F0040020E5
:1030B00080020020EC04002078020020809DFF00A8
:1030C00038B5EFF31185202383F31288BFF36F8F98
:1030D000084B1C68084B1B68E41AFFF703FF85F3D5
:1030E0001188BFF36F8F4FF47A532044B0FBF3F095
:1030F00038BD00BF800200207802002038B5EFF311
:103100001185202383F31288BFF36F8F044B1C6853
:10311000FFF7E8FE85F31188BFF36F8F204438BDB9
:103120008002002007B507484FF49853ADF80630E9
:1031300083680DF106011B689847002003B05DF815
:1031400004FB00BF885900107FB5036940681E6802
:103150000B68019301238DF80B300B79022B0C4681
:1031600006D0012B05D0FBB16FF0850004B070BD17
:1031700000238DF80A306379012BF5D1A379032B55
:1031800014D0042BF0D11023E5798DF80830002DF0
:10319000EAD10068064A01A9FEF7C7FE94E80300D9
:1031A00086E803002846E1E70223E2E70023EBE795
:1031B00000B4C4047FB505464668046923488368A3
:1031C000311D1B689847002817DBD6E90201836888
:1031D000DB68002B37D0984700280EDB23681B687C
:1031E000019301238DF80B3023681B79012B07D045
:1031F000022B04D01BB36FF0850004B070BD002318
:103200008DF80A3023685B79012BF4D18DF80930F1
:1032100023689B79042B14D0032BECD100238DF869
:1032200008302368DC79002CE5D1094A306801A90F
:10323000FEF7C5FD2846336998472046DDE702239F
:10324000DEE71023EBE76FF05700D6E78859001050
:1032500000B4C40473B5054644680669164883681B
:1032600004F118011B689847002810DBD4E9070116
:103270008368DB68E3B19847002808DBA06A40B99F
:10328000E36A28469847304601F06CFE002002B001
:1032900070BD01AA002101F0DDFC0028F7DB019BD5
:1032A00000221979186801F050FD0028E8DAEEE7ED
:1032B0006FF05700EBE700BF885900102DE9F04789
:1032C000046945682368804668699E88D3F8009041
:1032D0000F46FEF7FEFB6869FEF792FC6869FEF791
:1032E000A0FC6869FEF751FCC6F345166869FEF755
:1032F0001AFC082E94BF082110216869FEF72EFDE4
:1033000023689B8813F0010A0FD11A4B68695E434A
:10331000062303FB09F2B6FBF2F6FEF73EFD534629
:10332000B3420CDB6869FEF708FD94F84C3053B9E2
:10333000276404F12800BDE8F04700F011BB00BF8E
:1033400000BF0133ECE7636C4BB122689288D2076F
:1033500001D507B9276FA26C3946404698472368C4
:103360009B8813F4005303D1636004F11000E2E77B
:10337000BDE8F087006889092DE9F74FD0F804808F
:10338000D8F8144020460D46FEF781FB0022E27279
:10339000AB8813F0010376D001232270E372B5F9F4
:1033A0000430002B6378B4BF43F0100303F0EF0345
:1033B0006370AB8813F0020FA37814BF43F00803C7
:1033C00003F0F703A370AB8813F0040FA37814BFC6
:1033D00043F0040303F0FB03A370AB8813F0100F5A
:1033E000A37814BF43F0010303F0FE03A370AB887E
:1033F00013F0010FA37800F0A38003F0EF03A37094
:103400000123A372AB88C3F34513082B637803F041
:10341000F00394BF43F0070343F00F036370637836
:1034200003F0BF036370E37803F00303E370D8F89D
:10343000243053B1637843F040036370E378D8F8E5
:10344000242043EA8203DBB2E370E37803F0FE0357
:10345000E370AB8813F0010F18BF87224FF0800391
:1034600014BFE271E371A371E37903F07F03E371A9
:10347000A37903F07F03A37100204FF6FF73E3826B
:1034800003B0BDE8F08F334A2968DFF8CCA0019281
:103490009E461A460093019810F8019B0190F3464E
:1034A00094464FF0070E002707EB0E022B485208F8
:1034B00030F8126009FB06F6BAFBF6F6B14223D3E8
:1034C000A1EB0C0E881B864582BFB446009B5FFAB9
:1034D00082FB61451AD09646AEEB0706012EE3D873
:1034E00072452AD15FFA87FE1C4A32F81E2009FB7A
:1034F00002F2BAFBF2F291420BD3A1EB0C068F1A47
:10350000BE4206D9009B06E01746E5E7D21B012A1A
:10351000E8D9DE466246914205D000980130C0B23B
:1035200008280090B7D11B0103F070034EEA030E88
:103530005FFA8EFE84F800E031E75FFA8EFED3E793
:1035400043F01003A370D8F81400FEF7F6FB0E2327
:1035500057E700BFF760001000B4C404C85F001054
:1035600038B5EFF31185202383F31288BFF36F8FF3
:10357000064B9C6801F09BFF85F31188BFF36F8FAA
:103580002046BDE83840FFF7D5B900BFF40400205D
:1035900038B5094B53F82040013053F82050A5426C
:1035A00000D838BD636823B1204601F083FF08349A
:1035B000F5E723689847FAE7B05F001070B52B4B2A
:1035C0002B4C2C4D012286B003201A70FFF7E0FF30
:1035D00000F0C0FE01F08AFF0420FFF7D9FF264665
:1035E000AE4204F1300410D300F03CFC204C224EDB
:1035F000AC4226D300F04AFCFEF7F2FE1F4A137BD2
:1036000023F00103137306B070BD54F80C3C05930E
:1036100054F8103C049354F8143C039354F8183CA9
:10362000029354F81C3C019354F8203C009354E955
:103630000A2354E90C0100F0EDF954F8303C5E65C2
:10364000CDE7D4E90A23B3F1FF3F08BFB2F1FF3F52
:1036500005D052EA0301206803D101F069FF30343C
:10366000C6E73146183000F093FDF8E74D0500201D
:10367000605E0010605E00102B56001008030020F2
:1036800008B50348034A0021121A01F02BFF08BDB8
:10369000700200205005002070B5002386B0012282
:1036A000CDE90423134E144D01930F22CDE90232CC
:1036B0001249142303FB005506EBC01604464FF4D1
:1036C000C07000FB04110E4B00954FF4A072304601
:1036D00000F0A0F9737B0B4AEE6023F004037373D0
:1036E0004FF4046304FB033313442C746B6006B083
:1036F00070BD00BF88020020F4040020C00D00202F
:10370000EF54001080050020BFB50020FFF740FFF8
:103710002B4B83F308882B4D2B4E6B692B4F43F4B7
:1037200000736B610024E02385F82230EC772C765F
:103730006C76AC766B6A43F4E0236B62FFF7CEF8ED
:10374000FFF708FA4FF0FF33AB62EB62FFF7C8FAFE
:10375000FFF724FA1E4BB36040F201129A81C3E9CD
:1037600019441C6701F08FFEFEF720FF0120FFF7D0
:103770000FFF0220174DFFF70BFF00F0BBFB164BAE
:1037800075610593012315490094CDE903434FF476
:1037900080623B46CDE90144284600F03BF96A7B54
:1037A000064622F0040228466A7301F0FDFE204618
:1037B000FFF772FF3A4631462846FFF7A9F900BFE6
:1037C000C00D002000ED00E0F4040020BD35001025
:1037D000880300200803002019610010400F00201A
:1037E0002DE9F34104460E4600F10808EFF3118776
:1037F000202181F31288BFF36F8F006AE16888424D
:1038000038D22568AC4219D0C5B1284601F07AFEFD
:1038100005F1180001F059FFA268686931460024DB
:1038200001F0F5FF2846EC6701F0BEFE4046394640
:1038300000F0D4FA204602B0BDE8F081A268E06949
:10384000314601F0E4FFE369A26813446269E36171
:10385000934204BF2369E361236A013304F1240026
:103860002362102101F08CFF002087F31188BFF341
:103870006F8FE0E752EA03010AD0074989684046A2
:103880004E61CDE900233946224600F07BFAD2E7AB
:103890006FF02200E9E700BFF4040020F7B504460A
:1038A00004F108070846EFF31186202181F31288FE
:1038B000BFF36F8F216A002939D0A268A16901F096
:1038C000A6FFA369A268256813446269A3619342B5
:1038D00004BF2369A361236AAC4203F1FF3323626F
:1038E00033D02846002D31D001F00CFE05F1180030
:1038F00001F0EBFEA2686969E06901F088FFE36905
:10390000A26813446269E361934204BF2369E361DF
:10391000236A0133236200242846EC6701F044FE49
:103920003846314600F05AFA204603B0F0BD52EA5C
:10393000030110D0094989684861CDE90023314667
:103940002246384600F01EFAEFE7002086F3118881
:10395000BFF36F8FE9E76FF02200F7E7F404002070
:1039600070B5EFF31186202383F31288BFF36F8FB6
:103970000468A0421AD0CCB1D4E9003213605A6076
:10398000637B002523F00203C4E900556373A5603F
:1039900004F1180001F099FEE567204601F004FEED
:1039A00031460848BDE8704000F018BAD0E902324C
:1039B0009A4218BF013383600221103001F0E0FE0B
:1039C000EEE700BF4E05002013B5EFF31181202470
:1039D00084F31288BFF36F8F846844B1013C846024
:1039E00081F31188BFF36F8F002002B010BD52EA3F
:1039F000030406D181F31188BFF36F8F6FF00F00BE
:103A0000F3E7CDE900230246014800F0BBF9ECE7FB
:103A10004E0500202DE9F043073285B022F0070261
:103A20000E461F461099017300F158037F32C0E91A
:103A300016330446002322F03F02042183604173C1
:103A40003F2A0F98A073C4E90633E37306F14009D7
:103A5000A2F1400805D883F31188BFF36F8F0846A1
:103A600002DFB51829462046FEF7C0FD07300E9B41
:103A700020F00700E066C4E9199802930D9B0193BA
:103A80002D1A0C9B00932A463B4631462046FFF7F1
:103A90000DF800236365044B9B6803B11B6F23671C
:103AA000284605B0BDE8F083F4040020F0B587B0E7
:103AB00000250595109D04950F9D03950E9D02957B
:103AC000DDE912760D9D01950C9D00950446FFF7EA
:103AD000A1FFB6F1FF3F08BFB7F1FF3F05D056EA9F
:103AE000070305D1204600F08BF9204607B0F0BD52
:103AF00003493A46334604F1180000F049FBF4E765
:103B00002B56001038B590F90D20437B002A014652
:103B100004DA03F07F03437301F00CFD0D4D2A46D8
:103B2000AB6852F8184F944200D004B9EC688B424D
:103B300007D05A7BD20604D1DA897F2A01D9A2693B
:103B40002AB1A34202D0204600F068FA23466B61F6
:103B500038BD00BFF404002070B590F90D30427BF1
:103B6000002B36DBD10634D18369002B31D11C4CBC
:103B700062F07F024273224652F8181F914218BF2A
:103B80000B46E16923B9C0E900210860E0610CE05F
:103B900090F90E5093F90E60B5421BD0AE4219DD7C
:103BA0005968C0E9003108605860A569954200D0A5
:103BB00005B9E568A3685A7BD20604D1DA897F2A61
:103BC00001D9AA6952B1AB4202D0284600F026FAC8
:103BD000656170BD9942D6D01B68D3E76361F8E791
:103BE000F40400202DE9F843002A427B0CBF4FF07B
:103BF00010094FF0080919EA020F04460F4621D1B7
:103C000049EA0203D2092AD14373B9F1080F2CD033
:103C10004FF00008344E334653F8185F9D4200D0F1
:103C200005B9F568B368AB4202D0284600F0F6F952
:103C3000B9F1100F756144D1BFF35F8F637B23F03F
:103C400060036373284B9B68A34247D1EFF305835E
:103C5000002B43D13846BDE8F843FEF781BE03F0A0
:103C60007F03437301F066FCCFE7A36813B12046DE
:103C700001F068FC04F1180001F027FDA56D04F1C6
:103C80005806AE4211D04FF0000875B1284601F039
:103C900059FC05F1180001F018FDC5F87C80284694
:103CA000FFF75AFFA56DAE42EFD10F4B9B689C42C8
:103CB000AED1EFF30588B8F1000818BF4FF0010846
:103CC000A8E7B8F1000FB7D0084BB36040F201127B
:103CD0009A810022C3E919221A67ADE787F3118898
:103CE000BFF36F8FBDE8F883F40400208803002041
:103CF00070B590F90D20437B002A014604DA03F0E9
:103D00007F03437301F016FC4B7B1D4C63F07F0374
:103D100022464B7352F8183FE069934208BF0023D4
:103D200023B9C1E900200160E1610CE091F90E5076
:103D300093F90E60B5421ED0AE421CDD5868C1E951
:103D4000003001605960A569A368954200D005B9AB
:103D5000E5688B4207D05A7BD20604D1DA897F2AE4
:103D600001D9AA692AB1AB4202D0284600F056F91F
:103D70002B46636170BD9842D3D01B68D0E700BF6B
:103D8000F4040020F8B5124B0C461146114A98680D
:103D90001060DDE90676EFF31182202282F31288AB
:103DA000BFF36F8F9D68284601F0D6FBB6F1FF3F49
:103DB00008BFB7F1FF3F06D007493A46334605F141
:103DC000180000F0E5F92046BDE8F840FEF7C8BD50
:103DD000F4040020140500202B56001049B9EFF31D
:103DE000058030B9054B5A699B689A4201D0FEF7AD
:103DF000B7BD81F31188BFF36F8F7047F4040020C3
:103E000010B5EFF31184202282F31288BFF36F8F75
:103E1000427B510704D484F31188BFF36F8F10BD28
:103E200022F004024273FFF797FE21460248BDE8E4
:103E30001040FFF7D3BF00BF4E050020034648B92E
:103E4000EFF3058232B9064A51699268914201D076
:103E5000FEF786BD83F31188BFF36F8F704700BFF5
:103E6000F4040020EFF31181202383F31288BFF3C1
:103E70006F8F054B9A68D37B013BD37381F3118815
:103E8000BFF36F8F704700BFF404002070B5EFF3ED
:103E90001186202383F31288BFF36F8F144DAB6814
:103EA000DA7B0132DA732A4652F8184F944200D076
:103EB00004B9EC685A7BD20604D1DA897F2A01D989
:103EC000A2692AB1A34202D0204600F0A7F82346F7
:103ED0006B6186F31188BFF36F8FEFF3118020239E
:103EE00083F31288BFF36F8FBDE87040FFF7A6BF62
:103EF000F4040020024B03F11802C3E906227047C4
:103F0000F4040020F8B5EFF31186202383F3128820
:103F1000BFF36F8F1D4CA068437B03F07F03437397
:103F200001F008FBA3685A7B214662F07F025A73B6
:103F300051F8182FE0698A4208BF002222B9C3E96C
:103F400000100360E3610CE093F90E5092F90E70DB
:103F5000BD4217D0AF4215DD5068C3E900200360B1
:103F60005360A5698D4200D005B9E568A3689D42FC
:103F700002D0284600F052F865613046BDE8F840AE
:103F8000FEF7EEBC8242DAD01268D7E7F4040020D4
:103F9000014B9868704700BFF4040020D3B5DDE9F9
:103FA0000667089CCDE90067FFF7ECFE1CB1034BE8
:103FB0009B685B69236002B0D0BD00BFF4040020A1
:103FC000044BC01A044BC0105843044B01221A542E
:103FD000704700BF08040020ABAAAAAA4E05002023
:103FE000C3897F2B12D80A4B1B6863B1094B90F928
:103FF0000E201B689A4209DB437BDB0606D1064B89
:10400000C31A18BF012303F0010070470023FAE729
:104010001C050020180500208802002070B50E4BFA
:104020000E4C1E7C06EB460304EBC30405462046FB
:1040300001F04BFB0A4B002228469A55FFF7D0FFB0
:1040400048B1084B08491A68013A2046D317BDE821
:10405000704000F09DB870BDF404002008040020FA
:104060004E0500201C050020C13F001038B5EFF3BD
:104070001185202383F31288BFF36F8F104B114AF1
:104080009C681068A04206D1FFF7C8FF85F311882D
:10409000BFF36F8F38BD00211B7C11600A4AD35CCF
:1040A000002BF3D02046FFF79BFF0028EED0637B68
:1040B000DB0602D12046FFF71BFE2046E4E700BFE7
:1040C000F4040020140500204E0500200748084A8B
:1040D000084908B5121A01F007FA0748074A0849C3
:1040E000BDE80840121A01F0FFB900BF000100202E
:1040F000700200206062001000000020000100201B
:1041000060610010034B1B680BB9FEF7D9BF00209C
:10411000704700BF2005002030B570B10B4B5B68C5
:1041200098420AD0036843B1D3E90421D0E9044599
:10413000121941EB0501C3E90421D0E900321360F3
:104140005A600023C0E9003330BD00BF2C020020BC
:1041500010B50E4B1C689C4204D1FFF7D3FF6FF0E3
:10416000004010BDFFF7CEFF002CF8D0D4E9043298
:104170001B1A62EBE072B3F1004F72F10001EEDA4C
:10418000002AACBF18460020EBE700BF2C0200203D
:10419000B3F1FF3F08BFB2F1FF3FF8B504461D463B
:1041A00016465ED08160EFF31187202383F31288D7
:1041B000BFF36F8F013275F1FF3324DA2E49D1E955
:1041C00000206FF001039B1A4FF0FF3262EB0000FA
:1041D0009E1B60EB0500012E70F1000301DA012641
:1041E0000020C4E90460254ED6F800C07568B445C7
:1041F00008BF4FF0000CBCF1000F0DD1C4E9006501
:104200002C6074601CE0FFF77DFF013645F100056E
:10421000361845EBE070E4E7DCE90420D4E904312A
:10422000934271EB000E1DDAD21ADCF8043060EB19
:104230000100CCE90420C4E900C31C60CCF80440B0
:104240003368B34209D09C4207D10D4B1C6824B996
:10425000FFF77EFF2146FEF7B7FE87F31188BFF315
:104260006F8FF8BD9B1A61EB0001AC45C4E90431C6
:10427000C4D0DCF800C0BEE7200400202C020020DF
:10428000200500202DE9F84FEFF3118C202383F354
:104290001288BFF36F8FDFF8B0A0DFF8B0902C4F1B
:1042A000C9F80000DAF800000024504508BF0020DB
:1042B0000025D7E90021D9F80030E04678B3D0E9ED
:1042C000046C4FEAE37EB3427EEB0C0B05DAF61A80
:1042D0006CEB0E04C0E9046421E0B21841EBE67116
:1042E000C0E90445C7E90021FFF716FF88F31188EC
:1042F000BFF36F8F83689847EFF31188202383F310
:104300001288BFF36F8FD9F80030DAF800009B1BDA
:104310005045C446C9F80030CBD1D7E900219A18DE
:1043200041EBE3730024C7E90023C9F80040FFF71D
:104330000FFF2146FEF748FE88F31188BFF36F8F09
:10434000BDE8F84FFFF792BE2C02002020050020A8
:1043500020040020014800F031BC00BF1E610010A5
:1043600038B5064C064DAC4201D3002038BDD4E927
:104370000112204601F01EFA1434F4E74002002036
:10438000400200201FB5094A92E8030002AB83E80F
:1043900003004FF480620093054906484FF0FF3355
:1043A00000F006F9002005B05DF804FB605E001027
:1043B00080130020280400202DE9F043DFF8348129
:1043C00085B005464FF0FF364FF0FF37EFF3118908
:1043D000202383F31288BFF36F8FD5F880408CB908
:1043E000022105F1980001F0EDF9002860D10023C9
:1043F000CDE90067029305F1880249463E48FFF780
:10440000CDFDE3E7D5F884202368C5F880309442D9
:1044100008BFC5F88430D5F8983043F00203C5F8DA
:104420009830E36823F0040343F00103E36063681A
:1044300089F31188BFF36F8F20469847EFF31189F6
:10444000202383F31288BFF36F8FE368D90623F02C
:10445000010237D4E260E3689A071AD5D8F8000061
:1044600023F00203E360A0B10268002188B1436831
:104470009C4237D1036869BBD8F80420C8F80030E3
:10448000824201D1C8F80430002340F8083BFFF70E
:1044900067FAD5F8983023F00203C5F8983089F30D
:1044A0001188BFF36F8FDB0590D4FFF72BFD8DE7ED
:1044B00005F1900400220121204601F0E4F80028D3
:1044C000F8D194E723F01103E36004F11000FFF743
:1044D00047FAC0E70B60D8F80430834208BFC8F839
:1044E0000410D1E722B11368014610461A46BDE711
:1044F0001346F9E7240500204F050020F8B5C368EE
:104500009A0704460F46C3F340062CD45B071AD41F
:104510000B680BB983680B60E368DD0744BFA368D1
:104520003B603D684CBF02260126002D3AD01F4B50
:104530009B68AB420AD0D5F89830D807C3F3800205
:1045400014D46FF0120600233B6025E000F0E7FF73
:10455000D5F898300028F0D1D907C3F3C002F0D5C0
:1045600052B15B0708D46FF00F06ECE7002AFAD1CE
:10457000C3F3C003002BF6D100232360D5F88430A9
:1045800063B9C5E92044284601F027F9E36843F000
:104590000403E3603B68A3603046F8BD1C60C5F8C7
:1045A0008440F0E76FF01506CDE700BFF40400206B
:1045B000F0B589B004460020C4E920000E9D04F146
:1045C0008800C4E9220004F19000C4E924004DB33E
:1045D0002879002840F2011008BF0120C4F8980093
:1045E00000204FF0FF364FF0FF37CDE90330CDE923
:1045F0000100CDE906670C4B00942046FFF756FA00
:1046000055B1296811B1204600F08FFF6B791BB1BD
:10461000237B43F001032373204609B0BDE8F0403B
:1046200000F086BF0120D9E7B94300102DE9F04F13
:104630008DB043680293837815469A07804640F10F
:104640000D8100240E78002E00F00A81252E0BD05B
:104650004B1C03930134029B414630469847002887
:10466000C0F2F6800399EDE74E788B1C252E03935C
:10467000F0D00027B946BB46BBF11F0F38D8A6F1D2
:104680002003102B0AD8DFE803F02A0909300909B2
:10469000092109090928092D09091F00A6F130037C
:1046A000092B33D92A2E37D11BF0400F55F8043B84
:1046B00040F08280002BA7BF4BF0200B9946C3F13E
:1046C00000094BF0280B01E04BF0010B039B13F8A2
:1046D000016B0393002ECFD130E04BF0020B4BF077
:1046E000040BF3E74BF0080BF0E74BF0100BEDE792
:1046F000BBF17F0F19D8A6F13003092BD2D81BF0DC
:10470000400F03D00A2101FB0737DFE70A2101FB35
:1047100009394BF0200BD9E72E2E06D11BF0400FA4
:1047200040F09E804BF0400BD0E76C2E31D02BD860
:10473000682E36D06A2E3CD04C2E3AD0002F46F050
:104740002003B8BF2BF04002A3F16501BCBF1FFAE4
:1047500082FB0027022901D9612B2FD1073525F0D3
:104760000705DFF8ACA2083507271BF0080F66D055
:104770000AEB070B56465E4563D1A4EB0A0A06EB2B
:104780000A02A9EB07096FE1742E9FD07A2E9DD003
:10479000D4E71BF0800F18BF4BF4007B4BF0800B6D
:1047A00094E71BF4807F18BF4BF4007B4BF4807BB5
:1047B0008CE74BF4207B89E71F4687E7A6F163016E
:1047C000122900F2F080DFE811F013004F00EE0034
:1047D000EE00EE00EE004F00EE00EE00EE00EE0008
:1047E000EE00FE00E900EE00EE001B00EE00AF0060
:1047F00055F8043B8DF8183001270DF1180AB4E77D
:1048000055F804AB834BBAF1000F08BF9A461BF072
:10481000400F14BF39464FF0FF31504601F00DF8FC
:104820000746A2E7029B41462020984700280FDB5D
:10483000013EB742F6D34C44A41BB14698E74E461E
:10484000F7E716F8010B029B41469847002892DAD9
:1048500098F8023043F0040388F802304FF0FF3438
:1048600020460DB0BDE8F08F1BF0800F34D01BF454
:10487000007F2CD0073525F00705AA4669685AF84D
:10488000080B2BF010050029ADB237DA404261EB7E
:10489000410145F480650DF1180B0A235A4600F0DA
:1048A000D8FFA0EB0B0301936B0662D5019B25F0AB
:1048B00001019F4289B240F3A180002E00F099804F
:1048C00015F0100240F09C80BB460D4623E0AA463E
:1048D0005AF8040BC117D4E7AA461BF4807F5AF894
:1048E000041B01D10846F5E71BF4007F15BF48B251
:1048F00008B241F3C01141F3C031C2E750EA0103ED
:10490000C9D11BF0400FC6D0002FC4D12BF011022B
:1049100095B2BB46019740F2064115EA01021CBF61
:104920000BF1010B00222CE02BF010021FFA82FB8E
:104930000A231BF0800C49D01BF400711DBF073502
:1049400025F00705AA46AA461ABF5AF8080B696857
:104950005AF8040B50EA010545D12BF016051BF05F
:10496000400FADB242D0002F40D12BF0170295B2CC
:10497000019715F0100248D0019B002E42D103F19F
:10498000010B29075AD4EB0706D5D9456FDD0199EC
:10499000A9EB0B035F18CB465B4649E04BF0100BCD
:1049A00010237826C5E7782B04D1C6F1780343F0AD
:1049B0001003BEE7029B4146252098470028FFF6DA
:1049C00047AF023447E608230026B2E7AA461BF4A5
:1049D00080715AF8040BBDD01BF400711ABFC0B22D
:1049E000614680B2B6E72BF0060295B20DF1180BC6
:1049F00054E725F01105ADB2BB468CE70D46B8E78C
:104A00003B460D4603F1020BBBE7DDF804B082E73D
:104A1000556100104E610010CDE904324146029B01
:104A2000202098470028FFF613AF049B059A013316
:104A30009945F1DCA4EB0B01CC189B460AB3029B11
:104A40004146302098470028FFF602AF8EB9013466
:104A50002744019B391B994224DC1D465DBB019A0A
:104A6000A9EB0B09224455461446914435E0019FB9
:104A700092E7023441463046029B98470028E7DA25
:104A8000E6E640F206410D42E2D015F0020F14BFF7
:104A90002B20202015F4806F04F10104414618BF3B
:104AA0002D20E9E7029B414630209847002804F179
:104AB0000104CEDACCE606AB013D4146585D029BCF
:104AC00098470028CADAC3E6029B4146202098474F
:104AD000002804F10104FFF6BBAEA9EB0403002B90
:104AE000F2DCBFE5704700EBC1004088400870472A
:104AF000F8B50346FFF7F7FFB0FA80F0C0F11F00EA
:104B000003EB800CCA00DCF81060171D0C4606325F
:104B10008DB256B9012101FA00F0D9680143D9607C
:104B2000CCF81040DD539D52F8BDF1000431585AC5
:104B3000D85303EBC0009E52C5805D52F4E7043A9F
:104B40002DE9F041CC1D114424F0070421F00701A8
:104B50000E1BF708B7FA87F2C2F12405AD004FF03B
:104B600000080735C2F12002ED0804604146A76045
:104B7000C4F80C80920004F1100000F056FE6B00A7
:104B800043F00103638004EBC5027B1B5900A4F8CA
:104B900000805180A21924F83550A2F80280A35356
:104BA00004EBC70329465A8842F001025A80204686
:104BB000BDE8F041FFF79CBF002070470FB407B578
:104BC00004A951F8040B0191FDF7BEFC03B05DF898
:104BD00004EB04B070477047012801D1EFF305835F
:104BE000FEF7BEBC01460068FFF7F6BF08B5FDF74B
:104BF000F9FCBDE80840FDF719BD00210120FFF7D1
:104C0000EBBF61B662B680F31188BFF36F8F704758
:104C100072B6002383F31188BFF36F8FBFF34F8FFA
:104C200030BF62B6BFF36F8F7047202809D9B0F14B
:104C3000004F08D80138B0FA80F0C0F11F004000E2
:104C40007047082070473E20704708B5FEF7FCF813
:104C5000002008BD30B5036813600579046804EBD3
:104C6000C504A34202D36FF0010030BD5C798C42D1
:104C700001D00833F0E70020F7E710B50B88426851
:104C8000C3F38710116803F01F02445801239340B7
:104C900023434350002010BD10B50B884268C3F376
:104CA000871410680121225803F01F0301FA03F34F
:104CB00022EA03032350002010BD42680B881268CB
:104CC000C3F3871103F01F038958012202FA03F38B
:104CD0000B4214BF0220104670474368C1F387108F
:104CE0001B6801F01F01C05801238B40034214BF11
:104CF0000123002313700020704710B54368C1F3EF
:104D000087101A6801F01F01845801238B40234348
:104D10008350002010BD10B54368C1F38714186894
:104D200001F01F01235801228A4023EA0203235085
:104D3000002010BD38B504460D46FFF7DEFF2946BA
:104D40002046FFF7E8FF002038BD70B5B1B100EB99
:104D50008101012650F8045BC5F3931242F08042B2
:104D6000C5F344041368ED0706FA04F454BFA343E3
:104D7000234381421360EDD1002070BD6FF0150018
:104D8000FBE703691B681A680A601A790A715A7985
:104D90004A719A798A71DB79CB71002070470120C2
:104DA00070470369C3E901127047026953680BB188
:104DB00091681847704708B543681868FDF72BFAE3
:104DC000002814BF4FF0FF30012008BD4368186869
:104DD000FDF756BA43681868FDF741BA08B543684D
:104DE0001868FDF7DEF9B0FA80F0400908BD08B593
:104DF00043681868FDF7F2F9B0FA80F0400908BD81
:104E000043681868FDF7A6B943681868FDF791B9BB
:104E100008B543681868FDF7AEF9B0FA80F04009AC
:104E200008BD43681868FDF773B943681868FDF753
:104E30005EB943681868FDF736B9F8B547680E469D
:104E400015460024AC4201DB2046F8BD315D3868D0
:104E5000FDF70AF90028F7D10134F3E74368186831
:104E6000FDF71FBA43681868FDF7D8B808B543685E
:104E70001868FDF7B7F8003818BF0120404208BD98
:104E800008B5002220201146FDF7D4FDBDE80840FA
:104E90002020FDF7C1BD08B5002221201146FDF7F5
:104EA000C9FDBDE808402120FDF7B6BD30B5044678
:104EB000086808B9106008E0206845689D4205D37D
:104EC000B5FBF3F515602368186830BD0830206025
:104ED000086801380860EBE770B5044615461E46C1
:104EE000F1B901650023636504F16402334604F1FE
:104EF000540104F15000FFF7D9FF2066B5B9A5654C
:104F00000023E36504F16C02334604F15C0104F113
:104F10005800FFF7CBFF0023A0662364236770BD12
:104F20000B680365002BDDD04B68DCE72B68A365BD
:104F3000002BE5D06B68E4E708B500221A20114683
:104F4000FDF778FDBDE808401A20FDF765BD08B5FE
:104F500000221C201146FDF76DFDBDE808401C2015
:104F6000FDF75ABD10B5036804468BB19A687AB153
:104F7000186900F07AFA236898681B7B0121994030
:104F800003691B68194283680CBF1B69DB6898477B
:104F9000A36933B9636004F11000BDE81040FEF767
:104FA000DFBC10BD10B544680069FFF7DBFF606926
:104FB000FCF76DFD002010BD2DE9F843D0F804800A
:104FC00004690746D8F81400FCF73CFE014620B1FE
:104FD0003846BDE8F843FEF771B9606E18B9E36E64
:104FE0000BB90021F4E72368D8F814609B88DA072E
:104FF00000F1A780F28AD5071FFA82F927D4C3F3FC
:105000004513082BD4E91A2159D8B37CDBB20AB175
:1050100001B1137023689B88D80742BF236F013307
:105020002367E36E9BB1013BE366002B41D1A36D87
:105030000833A365E36D013BE365012304F16C02D2
:1050400004F15C0104F15800FFF730FFA06619F08D
:10505000040FD8F8145000F029812368226E9B8831
:10506000C3F34513082B51D8002A47D0636E03B110
:105070001378DBB2AB74636E9BB1013B6366002BAC
:105080003ED1236D08332365636D013B63650123C6
:1050900004F1640204F1540104F15000FFF706FF2B
:1050A0002066236E002B40F016812846FCF7B9FDE0
:1050B000FCE0A36E002BCAD00133A366C7E7738A56
:1050C0009BB20AB101B1138023689B88D90742BF04
:1050D000236F01332367E36E002BB8D0013BE366F7
:1050E0003BB9A36D0833A365E36D013BE365022380
:1050F000A4E7A36E002BAAD00233DEE71346B8E77D
:10510000236E002BD1D001332366CFE092B1636EC2
:1051100003B113889BB26B82636E002BC1D0013B3D
:1051200063664BB9236D08332365636D013B63658B
:105130000223ADE71346EDE7236E002BB5D0023313
:10514000E2E7F58A15F0010FC3F3451305F00805F2
:1051500040F0A180A26E002A00F09D80E16E00293F
:1051600000F09980082B4AD8B37C137023689B8881
:10517000DA0742BF236F01332367E36EADB2002B22
:1051800000F08580013BE366ABB9A36D0833A365EE
:10519000E36D013BE36504F16C02012304F15C0162
:1051A00004F15800FFF782FEA066002D6BD0636EFD
:1051B000002B7BD161E0D4E919230BB10133A36645
:1051C000002DF4D1002A58D0236E1B78B374636E7F
:1051D000002B52D0013B6366002B63D1236D083353
:1051E0002365636D013B6365012304F1640204F1EF
:1051F000540104F15000FFF759FE2066D7E7738A87
:10520000138023689B88DB0742BF236F013323672A
:10521000E36EADB2002B32D0013BE36623BBA36D3E
:105220000833A365E36D013BE36504F16C020223DF
:1052300004F15C0104F15800FFF738FEA066002D70
:10524000B5D1636ECBB1236E1B887382636EA3B13D
:10525000013B6366002B39D1236D08332365636DF1
:10526000013B63650223C0E7D4E919230BB1023384
:10527000A366002D9BD1002AE5D1304616E7636E68
:10528000002D94D1DEE7636E002B9DD1F5E7636EB0
:10529000002D8CD1F8E7002D89D10028EDD0082B06
:1052A000D1D891E7236E002B7FF42DAFD8F81400EE
:1052B000FCF7C8FC014600287FF48AAE636E1BB978
:1052C000E36E002B3FF48DAEBDE8F883236E002B18
:1052D0007FF435AFEAE7636E002B3FF4E6AEE5E717
:1052E0002DE9F0478046046947680E461D46914601
:1052F0000AB9002B5FD0B38898045FD44FF0FF3316
:105300004FF0FF3204F11000FEF75EFB9DF82030F5
:1053100084F84C30099B63640A9B6660A364D8F8E8
:1053200010A0DAF800309E4205D031464046FEF724
:1053300023F8CAF80060B388C3F34513082B94BF61
:105340000123022349462A462046FFF7C5FD786916
:10535000FCF78CFBB388D90702D47869FCF7DCFC36
:10536000636E13B17869FCF7C5FBE36E2BB1786906
:10537000FCF724FC7869FCF7EFFB7869FCF72FFC5D
:105380007869FCF795FB94F84C302068EBB1858880
:1053900015F0010502D0256F002D06DB23689B88E0
:1053A0009B0408D494F84C302BB90023636004F1BB
:1053B0001000FEF7D5FA2846BDE8F087A369002B58
:1053C0009CD163689E4299D1A9E7828812F00102BC
:1053D00030D1656D1346AB421ED10023E66D1946F0
:1053E000B14220D1934238BF13464FF4FA525A4388
:1053F0000368B2FBF3F20A23C832A2FB032304F1D1
:105400002800FEF7E1FAC8B92368256C9B88DA0703
:10541000C2D5002DC0D1BEE7216D01EBC301013320
:1054200049680A44D7E7A56D05EBC10501316D68F0
:105430002B44D5E74FF0FF321346E0E76FF07305DA
:10544000B3E71FB5079C0294069C019401240094C5
:10545000FFF746FF04B010BD1FB50024CDE901449D
:105460000094FFF73DFF04B010BD38B5044648B1C5
:10547000FDF744FEA02305465C43FDF73FFE431BBA
:10548000A342FAD338BD704740B1C368587810F0D2
:1054900001001EBF1878B0FA80F040097047EFF3A2
:1054A0001183202383F31288BFF36F8FFEE708B5C3
:1054B000FFF7F5FF10B5D0E9003433B90020E268FA
:1054C000537843F00103537010BD204698470028DD
:1054D000F4D00028B8BF4042E368FF28A8BFFF20EF
:1054E0001870ECE700F0A1B900F091B9704708B569
:1054F0002024EFF3118384F31288BFF36F8FFFF73B
:1055000087FBF6E7D0E9003213605A60427B002344
:1055100022F00202C0E90033427383607047EFF368
:105520000580003818BF012070476FF057007047A2
:10553000FEF766BCD0E9003213605A600023C0E970
:105540000033704708B5FFF7F5FF437B23F00203F4
:1055500043730023836008BD38B504460D46FEF74B
:10556000D1FA637B43F002036373E5B1A5602B6856
:105570009D4209D16B68C4E900531C606C6012E065
:105580006A689A42F6D01B68002BF3D094F90E207B
:1055900093F90E108A42F3D09142F1DD5A68C4E9C2
:1055A000003214605C6038BD10B5EFF31184202325
:1055B00083F31288BFF36F8FFEF7CEFA84F311885E
:1055C000BFF36F8F10BD08B5EFF31181202282F376
:1055D0001288BFF36F8F83680BB1FFF7B3FF81F3BE
:1055E0001188BFF36F8F08BD38B50446EFF31185FE
:1055F000202383F31288BFF36F8F437B13F0280FB0
:105600000BD183680BB1FFF79DFF637B51B903F0AA
:10561000FB0363732046FEF79FFA85F31188BFF3FF
:105620006F8F38BD03F0EB03F3E701211838FFF764
:10563000DBBF10B5FFF7C7FFBDE81040183000F022
:1056400044B8EFF31181202282F31288BFF36F8FE9
:10565000027BD2070CD581F31188BFF36F8F002333
:1056600083F31188BFF36F8F0423184602DF70475E
:10567000437B1B0704D581F31188BFF36F8F7047FD
:105680000122FEF7AFBA38B5EFF31185202383F37B
:105690001288BFF36F8F0468A04212D09CB1E167FB
:1056A00062612046FFF74EFF04F1180000F00DF88C
:1056B0002046FEF751FA012085F31188BFF36F8F62
:1056C00038BD0020F8E72046F6E710B5EFF3118467
:1056D000202282F31288BFF36F8F03683BB1FEF77D
:1056E0001BFD002084F31188BFF36F8F10BD6FF096
:1056F0001500F7E72DE9F041846805460E46ECB148
:105700006378012B25D114F8533C9A0714D5A4F1E2
:1057100060073846FFF78DFF082E0CBF6FF00303BC
:105720000023E36114F8533CDB0605D154F8483CF0
:1057300013B93846FFF738FF00232370EB68C3F333
:1057400086321643002066F39433A860EB60BDE810
:10575000F081022BF0D12378002BEDD054F8048C8B
:10576000B8F1000FE8D004F11400FFF7AEFFA4F188
:1057700014070023E3623946404600F035F8DBE7C2
:1057800010B50346EFF31184202282F31288BFF391
:105790006F8F0068834208D0D0E9003213605A60EE
:1057A0000023C0E90033FFF7A5FF84F31188BFF39E
:1057B0006F8F10BD10B400F10C04C0E9034410BC9D
:1057C000FFF7BDB9026801238B4022EA030303609F
:1057D00022FA01F000F00100704720B100221146CA
:1057E0008830FFF750BF704713B501900846EFF3BC
:1057F0001184202383F31288BFF36F8F01A9FEF772
:105800007DFE84F31188BFF36F8F02B010BD0A4490
:10581000914200F1FF3300D1704710B511F8014BF0
:1058200003F8014F9142F9D110BD0244034693425F
:1058300000D1704703F8011BF9E710B50246014497
:105840008A42134603D01C780132002CF8D1181A72
:1058500010BDF0B5C3F137070446FFB203F01F03D4
:105860001046082BE6B233D0102B3ED06508A408B2
:1058700044EA817445EAC1752D194FEA910242EB61
:105880005102290941EA02716D1842EB1212290AEC
:1058900041EA02616D1842EB1222290C41EA0241F1
:1058A0006D1842EB1242AD1842F10002EC0844EAD6
:1058B0004274D10804EB8402A6EB4205EDB2092D37
:1058C0000CD90134A5F10A0541F10001EDB212E055
:1058D000E40844EA417406F00705C908303554EA83
:1058E000010200F8015BBCD1F0BD240944EA017457
:1058F00006F00F050909092D84BFED19EDB2EDE79A
:105900000148006870470000CC040020000000003F
:105910005FF800F0010000205FF800F02D0000208B
:08592000FEC9FF7F0100000039
:1059280000000000885900106143001000000000CA
:10593800000000009C5900102531001000000000F4
:10594800B5310010C4590010B5310010B05900101D
:10595800952E001000000000312F001000000000FC
:10596800712E0010000000008543001000000000A8
:1059780055320010EC59001055320010D85900105B
:10598800BD6000109C5E0010A05E00103402002074
:1059980000000000CA600010BC5E0010C05E00106D
:1059A8003602002000000000D9600010D05E001010
:1059B800F85E0010380200201C010020E86000108A
:1059C800E45E0010F85E00103A020020300100206A
:1059D800FF600010445F0010A45F00103C0200202C
:1059E800440100200C610010745F0010A45F0010D7
:0859F8003E020020B80100206E
:105A000000000000FB4B001000000000FB4B0010EA
:105A100000000000FB4B001000000000FB4B0010DA
:105A200000000000FB4B001000000000FB4B0010CA
:105A300000000000FB4B001000000000FB4B0010BA
:105A400000000000FB4B001000000000FB4B0010AA
:105A500000000000FB4B001000000000FB4B00109A
:105A600000000000FB4B001000000000FB4B00108A
:105A700000000000FB4B001000000000FB4B00107A
:105A800000000000FB4B001000000000FB4B00106A
:105A900000000000FB4B001000000000FB4B00105A
:105AA00000000000FB4B001000000000FB4B00104A
:105AB00000000000FB4B001000000000FB4B00103A
:105AC00000000000FB4B001000000000FB4B00102A
:105AD000EC590010B94F001000000000FB4B001003
:105AE000D8590010B94F001000000000FB4B001007
:105AF00000000000FB4B001000000000FB4B0010FA
:105B0000C4590010AB4D0010B0590010AB4D00103F
:105B100000000000FB4B001000000000FB4B0010D9
:105B200000000000FB4B001000000000FB4B0010C9
:105B300000000000FB4B001000000000FB4B0010B9
:105B400000000000FB4B001000000000FB4B0010A9
:105B500000000000FB4B001000000000FB4B001099
:105B600000000000FB4B001000000000FB4B001089
:105B700000000000FB4B001000000000FB4B001079
:105B800000000000FB4B001000000000FB4B001069
:105B900000000000FB4B001000000000FB4B001059
:105BA00000000000FB4B001000000000FB4B001049
:105BB00000000000FB4B001000000000FB4B001039
:105BC00000000000FB4B001000000000FB4B001029
:105BD00000000000FB4B001000000000FB4B001019
:105BE00000000000FB4B001000000000FB4B001009
:105BF00000000000FB4B001000000000FB4B0010F9
:105C000000000000FB4B001000000000FB4B0010E8
:105C100000000000FB4B001000000000FB4B0010D8
:105C200000000000FB4B001000000000FB4B0010C8
:105C300000000000FB4B001000000000FB4B0010B8
:105C400000000000FB4B001000000000FB4B0010A8
:105C500000000000FB4B001000000000FB4B001098
:105C600000000000FB4B001000000000FB4B001088
:105C700000000000FB4B001000000000FB4B001078
:105C800000000000FB4B001000000000FB4B001068
:105C900000000000FB4B001000000000FB4B001058
:105CA00000000000FB4B001000000000FB4B001048
:105CB00000000000FB4B001000000000FB4B001038
:105CC00000000000FB4B001000000000FB4B001028
:105CD00000000000FB4B001000000000FB4B001018
:105CE00000000000FB4B001000000000FB4B001008
:105CF00000000000FB4B001000000000FB4B0010F8
:105D000000000000FB4B001000000000FB4B0010E7
:105D100000000000FB4B001000000000FB4B0010D7
:105D200000000000FB4B001000000000FB4B0010C7
:105D300000000000FB4B001000000000FB4B0010B7
:105D400000000000FB4B001000000000FB4B0010A7
:105D500000000000FB4B001000000000FB4B001097
:105D600000000000FB4B001000000000FB4B001087
:105D700000000000FB4B001000000000FB4B001077
:105D800000000000FB4B001000000000FB4B001067
:105D900000000000FB4B001000000000FB4B001057
:105DA00000000000FB4B001000000000FB4B001047
:105DB00000000000FB4B001000000000FB4B001037
:105DC00000000000FB4B001000000000FB4B001027
:105DD00000000000FB4B001000000000FB4B001017
:105DE00000000000FB4B001000000000FB4B001007
:105DF00000000000FB4B001000000000FB4B0010F7
:105E000000000000FB4B001000000000FB4B0010E6
:105E100000000000FB4B001000000000FB4B0010D6
:105E200000000000FB4B001000000000FB4B0010C6
:105E300000000000FB4B001000000000FB4B0010B6
:105E400000000000FB4B001000000000FB4B0010A6
:105E500000000000FB4B001000000000FB4B001096
:105E6000456100100001000004FB9A8B0001000056
:105E7000000000200001000000000B0602000000EE
:105E8000845E001000000010AE60001024000207C5
:105E900000000020B660001022000B1100400040FE
:105EA0007B4C0010994C0010000000000000000026
:105EB000BB4C00100000000000000000004000404B
:105EC000DB4C0010FB4C0010174D0010354D00103E
:105ED000004001400B1300009C5900100B2F0000E4
:105EE000974E0010003001400A1300009C5900102A
:105EF0000A2F0000814E00106D4E0010654E0010FC
:105F00005D4E001049310010834D00103B4E0010D3
:105F1000334E00102B4E0010234E0010114E001077
:105F2000094E0010014E0010EF4D0010DD4D001025
:105F3000D54D0010CD4D0010B74D00109F4D0010F5
:105F4000A34D001000000000000000000000000051
:105F500000000000000000000020014009130000C4
:105F60009C590010092F00000000000000000000F4
:105F70004F4F001000000000000000000000000073
:105F800000000000000000000000014007130000B6
:105F90009C590010072F00000000000000000000C6
:105FA000394F00105954001043540010A54F0010F1
:105FB0002859001028590010605900106859001025
:105FC00088590010885900100200040008001000D1
:105FD0002000400080000001554152542064657645
:105FE000696365206E6F7420666F756E642100555D
:105FF0004152542064657669636520646F6573203F
:106000006E6F7420737570706F727420696E746532
:1060100072727570742D64726976656E2041504994
:106020000A0048656C6C6F212049276D20796F75D7
:1060300072206563686F20626F742E0D0A005465CC
:106040006C6C206D6520736F6D657468696E672078
:10605000616E6420707265737320656E7465723A48
:106060000D0A0053504920646576696365202573E5
:10607000206973206E6F742072656164790A005321
:106080005049206765742073756363657373000AF4
:106090002D2D2D2D2D2D2D2D2D2D2D2D2D0A000AA3
:1060A00072783D25782C004563686F3A2000464C95
:1060B0004153485F30005352414D5F30007263637B
:1060C00040343030303430303000726573657440A5
:1060D0003430303034303030007573617274403495
:1060E0003030313430303000757361727440343088
:1060F00030313330303000010203040506070873E5
:106100007069403430303132303030007370694063
:106110003430303130303030006D61696E002A2A01
:106120002A20426F6F74696E67205A6570687972B1
:10613000204F53206275696C6420342E302E30203D
:106140002A2A2A0A00737973776F726B7100286E9E
:10615000756C6C29002A666C6F61742A000000005F
:106160004FF0402200F00F00936823F00F03034329
:106170009360936943F00203936100BF00BF00BFC7
:1061800000BF00BF00BF00BF00BF70472DE9F04156
:10619000A2B0EFF3108372B6214B5B7A98073BD421
:1061A000EFF3108672B6BFF34F8F1E4B1A68D107FC
:1061B0000AD54FF08052C3F880211B4AC3F88421CE
:1061C000D3F88421D207FBD401AB00221846012466
:1061D0004FF020084FF0805E022511464FF00A0C68
:1061E0004FF0FF370132032AC3E9081C1C7083F803
:1061F0000C80C3F818E05D7099709D80DD809C6014
:106200001C75597599839F6203F12C03EAD1074BE2
:10621000984786F31088FEE722B0BDE8F08100BF02
:106220000070014000500540011000107B74000414
:10623000000000000000000000000000000000005E
:10624000000000000000000000000000000000004E
:10625000000000000000000000000000000000003E
:1062600056312E312E300000B94B001000000000D6
:106270004B4C00100000000000000000280100202E
:10628000000000000000000000C201000001030047
:106290003C010020000000000000000000C20100DE
:1062A00000010300000000000000000000000000EA
:1062B00000000000540100205401002000000000F4
:1062C0000100000064010020640100206C01002036
:1062D0006C01002000000000010000007C01002093
:1062E0007C01002000000000000000000000000011
:1062F000000000000000000000000000000000009E
:10630000000000000000000000000000000000008D
:10631000000000000000000000000000000000007D
:106320000000000000000000C8010020C80100209B
:106330000000000001000000D8010020D80100206A
:10634000E0010020E001002000000000010000004A
:10635000F0010020F001002000000000000000001B
:10636000000000000000000000000000000000002D
:10637000000000000000000000000000000000001D
:106380000000000000000000000000002C020020BF
:046390002C020020BB
:0C639400000000000000000000000000FD
:1063A0004002002040020020200000000A000000FF
:1063B000C017002000190020C0170020C0170020BF
:1063C00000000000640200206402002000000000C1
:0463D00015E015E0DF
:0400000510002909B5
:00000001FF
